:100000000C9434000C9451000C9451000C94510049
:100010000C9451000C9497000C9451000C942B03F9
:100020000C9451000C9451000C9451000C9451000C
:100030000C9451000C9451000C9451000C945100FC
:100040000C9451000C9451000C9451000C945100EC
:100050000C9451000C9451000C9451000C945100DC
:100060000C9451000C94510011241FBECFEFD8E026
:10007000DEBFCDBF11E0A0E0B1E0E0EFF7E002C0ED
:1000800005900D92A438B107D9F721E0A4E8B1E0BA
:1000900001C01D92AC38B207E1F70E944C010C94EC
:1000A000F6030C9400008295880F880F807C809363
:1000B0007C0080917C008F7D80937C008FEF860F89
:1000C000962F9827891748F4862F90E00E94B30353
:1000D0009EEF980F8150963008F087E080937A0069
:1000E00080917A00806880937A000895ECE7F0E0D0
:1000F0009081987F8770982B9083EAE78081806455
:100100008083089580917A00002486FF0394802DD7
:1001100008958091780020917900922F08950E948F
:1001200076000E9482008115E1F30C9489001F92F1
:100130000F920FB60F921124EF92FF920F931F931D
:100140002F933F934F935F936F937F938F939F93DF
:10015000AF93BF93CF93EF93FF93C9B18091010108
:10016000813041F5C4FD26C00E941F032091840107
:100170003091850140918601509187017B018C016E
:10018000E21AF30A040B150B9701A801233331057A
:100190004105510578F03091000121E0311120E056
:1001A0002093000160938401709385018093860100
:1001B00090938701C4FB882780F980930101FF9108
:1001C000EF91CF91BF91AF919F918F917F916F915F
:1001D0005F914F913F912F911F910F91FF90EF9061
:1001E0000F900FBE0F901F901895209100012130A5
:1001F000F9F028985F985E9883309105C1F030F44B
:100200008130910531F0029751F00895049769F01B
:10021000089582E091E00E946A03289A08958FE091
:1002200091E00E946A035F9A0895289A5F9A5E9A05
:100230000895CF93DF93EC0182309105E1F038F41B
:10024000892B89F4672B01F1C1E0D0E005C0833030
:100250009105B1F00497D9F0CE010E94F500CE01CE
:10026000DF91CF910895C1E0D0E0672B09F4C0E0A1
:10027000CC0FDD1FF1CF672B39F3C3E0D0E0ECCF1B
:10028000C2E0D0E0672B41F3C4E0D0E0E5CFC0E0AE
:10029000D0E0672B09F7F1CFCDB7DEB72E970FB6B9
:1002A000F894DEBF0FBECDBF60E875E280E090E05D
:1002B0000E944E038EE191E00E946A03209A2898E2
:1002C000579A5F98569A5E982198299A55985D9A00
:1002D000259A2D98249A2C98229A2A98239A2B981A
:1002E00054985C9A539852988091680084608093E7
:1002F000680080916D00806180936D0088274C9923
:100300008395809301010E941303789460E881E053
:100310000E945300109200010E941F0369837A8398
:100320008B839C83FF24F394DF2CCF2C2F2C2AEF7C
:100330002B871C861D861E8631E03E83312C41E0D2
:100340004D831F82188619861A868101A12CB12C33
:1003500045018CE291E00E946A038091000190E0E7
:100360000E9477030E941F032B013C018091000132
:10037000E02E813061F5EE241999E3940E1120C12D
:10038000C201D30188199909AA09BB09C397A1051C
:10039000B105E8F01E15D9F01E2DE11018C08BE351
:1003A00091E00E946A038D859E850E9477038D856A
:1003B0009E858330910509F4FDC008F0DFC08130CF
:1003C000910509F4E7C0029709F4EEC010E08091AE
:1003D00000010D81813009F051C000274D9903952E
:1003E0003D813013F0C0C201D3012F81388549858A
:1003F0005A85821B930BA40BB50BC397A105B105BE
:10040000E8F13016D9F1302E011138C08CE591E0B9
:100410000E946A030E941F0369837A838B839C83F3
:1004200081E04D855E854130510509F080E0922DD7
:100430009170282E292A81E02D853E8522303105B4
:1004400009F080E0D0FADD24D0F8D82A81E04D858B
:100450005E854330510509F080E0C0FACC24C0F835
:10046000C82A312CF1100AC081E02D853E85243048
:10047000310509F080E0312C00E0F82EC201D301F3
:1004800029813A814B815C81821B930BA40BB50BB4
:100490004B855C8584179507A105B10580F1211472
:1004A00021F085B150E2852785B9D11421F085B1BD
:1004B00090E1892785B9C11421F085B128E0822710
:1004C00085B9F11421F085B134E0832785B9909185
:1004D0000001913081F44D855E854330510509F46A
:1004E0008FC008F075C04130510509F481C0423019
:1004F000510509F481C049825A826B827C8277243B
:100500004A9973945E81571519F180910001811108
:1005100088C066244B996394711012C0611074C036
:1005200061E070E08D859E850E9419018D879E8710
:1005300087E691E00E946A038D859E850E9477037D
:10054000872D90E00E947703862D90E00E9477032C
:1005500080E00E948F0096958795969587954AE052
:10056000489F9001499F300D1124C90186509F4F2B
:100570008B879C877E820D830E2DEBCE2D853E854D
:100580002430310509F022CF85B194E0892785B95F
:10059000F12C1CCF8FE491E00E946A0385B190E2B8
:1005A000892785B9212C12CF85B190E1892785B99A
:1005B000D12C0CCF85B198E0892785B9C12C06CF05
:1005C0004201530104CF4F82588669867A8656CFFE
:1005D0002D853E852430310509F08DCF85B18927E1
:1005E00085B98BB180588BB98BB140E4842706C0A4
:1005F00085B1892785B97FCF8BB180588BB97BCFE7
:100600008BB130E48327FACF86E791E00E946A033A
:1006100060E070E08D859E850E9419018D879E8720
:100620008DCF7E8095CF82E08093B00094E0909350
:10063000B1008093700089EF8093B30008952FB7C5
:10064000F894609188017091890180918A0190915C
:100650008B012FBF08951F921FB61F9211248F93F5
:100660009F93AF93BF938091880190918901A0914E
:100670008A01B0918B010196A11DB11D8093880163
:1006800090938901A0938A01B0938B01BF91AF91A0
:100690009F918F911F901FBE1F9018959B01AC01D9
:1006A00060E472E48FE090E00E94910321503109F0
:1006B0003093C5002093C40088E18093C10086E098
:1006C0008093C20008959091C00095FFFCCF809365
:1006D000C6000895CF93DF93EC018881811103C098
:1006E000DF91CF91089521960E946303F6CFCF93B7
:1006F000DF9300D000D000D0CDB7DEB74AE0BE0116
:100700006F5F7F4F0E94C103CE0101960E946A0372
:100710000F900F900F900F900F900F90DF91CF914F
:100720000895A1E21A2EAA1BBB1BFD010DC0AA1F32
:10073000BB1FEE1FFF1FA217B307E407F50720F04A
:10074000A21BB30BE40BF50B661F771F881F991FC5
:100750001A9469F760957095809590959B01AC010E
:10076000BD01CF010895AA2781110C94BB03A8E015
:10077000892BD9F70895A3958695E8F78A2F9927AD
:100780000895BB274A3031F4992322F4BDE29095B5
:1007900081959F4F0C94CD03BB27FB015527AA27BA
:1007A000880F991FAA1FA41710F0A41B83955051FE
:1007B000B9F7A05DAA3308F0A95DA193009779F776
:1007C000B111B1931192CB010C94E603DC01FC0151
:1007D000672F71917723E1F7329704C07C916D9375
:1007E00070836291AE17BF07C8F30895F894FFCFE6
:1007F00001017265647570646174656C656400679D
:100800007265656E7570646174656C6564006865B9
:100810006C6C6F207374617274656400726F746FB6
:100820007220656E61626C653F2000627574746F42
:100830006E20746F67676C6564206F6E636500720D
:10084000656420746F67676C65643F0072657365EB
:1008500074206D6164650072696768745F726F749B
:100860006174696F6E006C6566745F726F74617439
:04087000696F6E003E
:00000001FF
