:100000000C9434000C9451000C9451000C94510049
:100010000C9451000C9497000C9451000C9406031E
:100020000C9451000C9451000C9451000C9451000C
:100030000C9451000C9451000C9451000C945100FC
:100040000C9451000C9451000C9451000C945100EC
:100050000C9451000C9451000C9451000C945100DC
:100060000C9451000C94510011241FBECFEFD8E026
:10007000DEBFCDBF11E0A0E0B1E0E6EAF7E002C0EC
:1000800005900D92A438B107D9F721E0A4E8B1E0BA
:1000900001C01D92AC38B207E1F70E944C010C94EC
:1000A000D1030C9400008295880F880F807C809388
:1000B0007C0080917C008F7D80937C008FEF860F89
:1000C000962F9827891748F4862F90E00E948E0378
:1000D0009EEF980F8150963008F087E080937A0069
:1000E00080917A00806880937A000895ECE7F0E0D0
:1000F0009081987F8770982B9083EAE78081806455
:100100008083089580917A00002486FF0394802DD7
:1001100008958091780020917900922F08950E948F
:1001200076000E9482008115E1F30C9489001F92F1
:100130000F920FB60F921124EF92FF920F931F931D
:100140002F933F934F935F936F937F938F939F93DF
:10015000AF93BF93CF93EF93FF93C9B18091010108
:10016000813041F5C4FD26C00E94FA02209184012D
:100170003091850140918601509187017B018C016E
:10018000E21AF30A040B150B9701A801233331057A
:100190004105510578F03091000121E0311120E056
:1001A0002093000160938401709385018093860100
:1001B00090938701C4FB882780F980930101FF9108
:1001C000EF91CF91BF91AF919F918F917F916F915F
:1001D0005F914F913F912F911F910F91FF90EF9061
:1001E0000F900FBE0F901F901895209100012130A5
:1001F000F9F028985F985E9883309105C1F030F44B
:100200008130910531F0029751F00895049769F01B
:10021000089582E091E00E944503289A08958FE0B6
:1002200091E00E9445035F9A0895289A5F9A5E9A2A
:100230000895CF93DF93EC0182309105E1F038F41B
:10024000892B89F4672B01F1C1E0D0E005C0833030
:100250009105B1F00497D9F0CE010E94F500CE01CE
:10026000DF91CF910895C1E0D0E0672B09F4C0E0A1
:10027000CC0FDD1FF1CF672B39F3C3E0D0E0ECCF1B
:10028000C2E0D0E0672B41F3C4E0D0E0E5CFC0E0AE
:10029000D0E0672B09F7F1CFCDB7DEB72E970FB6B9
:1002A000F894DEBF0FBECDBF60E875E280E090E05D
:1002B0000E9429038EE191E00E944503209A28982C
:1002C000579A5F98569A5E982198299A55985D9A00
:1002D000259A2D98249A2C98229A2A98239A2B981A
:1002E00054985C9A539852988091680084608093E7
:1002F000680080916D00806180936D0088274C9923
:100300008395809301010E94EE02789460E881E079
:100310000E945300109200010E94FA0269837A83BE
:100320008B839C8321E0288731E03F8341E04E832B
:1003300051E05D833AEF832E912C1D861E86A22EFE
:10034000312C222E19861A861B861C8610E0B22EAE
:10035000612C712C23018CE291E00E944503809175
:10036000000190E00E9452030E94FA026B017C019E
:10037000809100010B2D813061F5002719990395BB
:10038000B012F9C0C601D70184199509A609B709A9
:10039000C397A105B105E8F01017D9F0102F01118E
:1003A00018C08BE391E00E9445038D859E850E94D5
:1003B00052038D859E858330910509F4D6C008F0DF
:1003C000B8C08130910509F4C0C0029709F4C7C0D4
:1003D00010E0BB244D99B3942B10D0C0C601D701B7
:1003E00029853A854B855C85821B930BA40BB50B45
:1003F000C397A105B105F0F03B14E1F03B2CB1101F
:1004000019C08CE591E00E944503109200010E9402
:10041000FA0269837A838B839C832D982C982B987E
:100420002A98312C31E0388741E04F8351E05E83D8
:1004300081E08D83C601D70129813A814B815C819E
:10044000821B930BA40BB50B88159905A105B1056B
:10045000A0F13D81311521F085B140E2842785B9B5
:100460005E81511521F085B190E1892785B92F81F1
:10047000211521F085B138E0832785B948854115DC
:1004800021F085B154E0852785B990910001913024
:1004900081F42D853E852330310509F48CC008F0A8
:1004A00072C02130310509F47EC02230310509F4D3
:1004B0007EC0C982DA82EB82FC82FF244A99F394DF
:1004C000AF1419F180910001811186C0EE244B997F
:1004D000E394F11012C0E11072C061E070E08D850C
:1004E0009E850E9419018D879E8787E691E00E9474
:1004F00045038D859E850E9452038F2D90E00E94BA
:1005000052038E2D90E00E94520380E00E948F00E3
:1005100096958795969587952AE0289F4001299F73
:10052000900C11243AEF830E911CAF2C2B2CB02E83
:1005300012CF2D853E852430310509F049CF85B194
:1005400094E0892785B9188643CF8FE491E00E9413
:10055000450385B190E2892785B91D8239CF85B1E0
:1005600090E1892785B91E8233CF85B198E089272C
:1005700085B91F822DCF260137012BCFC986DA8698
:10058000EB86FC8657CF4D855E854430510509F0DA
:1005900090CF85B1892785B98BB180588BB98BB144
:1005A00090E4892706C085B1892785B982CF8BB1B0
:1005B00080588BB97ECF8BB150E48527FACF86E780
:1005C00091E00E94450360E070E08D859E850E9469
:1005D00019018D879E878FCFFA2C97CF82E0809369
:1005E000B00094E09093B1008093700089EF809305
:1005F000B30008952FB7F894609188017091890134
:1006000080918A0190918B012FBF08951F921FB690
:100610001F9211248F939F93AF93BF938091880172
:1006200090918901A0918A01B0918B010196A11D41
:10063000B11D8093880190938901A0938A01B093A2
:100640008B01BF91AF919F918F911F901FBE1F9003
:1006500018959B01AC0160E472E48FE090E00E9489
:100660006C03215031093093C5002093C40088E108
:100670008093C10086E08093C20008959091C000ED
:1006800095FFFCCF8093C6000895CF93DF93EC01D4
:100690008881811103C0DF91CF91089521960E9436
:1006A0003E03F6CFCF93DF9300D000D000D0CDB77C
:1006B000DEB74AE0BE016F5F7F4F0E949C03CE0110
:1006C00001960E9445030F900F900F900F900F908E
:1006D0000F90DF91CF910895A1E21A2EAA1BBB1BA8
:1006E000FD010DC0AA1FBB1FEE1FFF1FA217B307FE
:1006F000E407F50720F0A21BB30BE40BF50B661F14
:10070000771F881F991F1A9469F7609570958095D7
:1007100090959B01AC01BD01CF010895AA278111DD
:100720000C949603A8E0892BD9F70895A395869594
:10073000E8F78A2F99270895BB274A3031F4992387
:1007400022F4BDE2909581959F4F0C94A803BB279E
:10075000FB015527AA27880F991FAA1FA41710F07D
:10076000A41B83955051B9F7A05DAA3308F0A95D89
:10077000A193009779F7B111B1931192CB010C9429
:10078000C103DC01FC01672F71917723E1F73297F8
:1007900004C07C916D9370836291AE17BF07C8F35C
:0607A0000895F894FFCF5C
:1007A60001017265647570646174656C65640067E7
:1007B6007265656E7570646174656C656400686504
:1007C6006C6C6F207374617274656400726F746F01
:1007D6007220656E61626C653F2000627574746F8D
:1007E6006E20746F67676C6564206F6E6365007258
:1007F600656420746F67676C65643F007265736536
:1008060074206D6164650072696768745F726F74E5
:100816006174696F6E006C6566745F726F74617483
:04082600696F6E0088
:00000001FF
